:03000000020D7D71
:0C0D7D00787FE4F6D8FD758107020DC4F4
:1015D500FEFDFBF7EFDFBF7F7FBFDFEFF7FBFDFE14
:1015E500FEFCF8F0E0C080007F3F1F0F07030100FD
:1015F500000103070F1F3F7FFF0080C0E0F0F8FCEC
:10160500FEFFFEFCFAF6EEDEBE7E7F3F5F6F777B68
:021615007D7ED8
:1017B500410000FF410001FF410002FF410003FF1E
:0517C500420004004693
:10179700D3EF9400EE940040147D7D7C00ED1D7026
:0D17A700011CED4C70F7EF1F70E61E80E393
:0117B4002212
:10108A009015D5EF93900000F0900002F0900001C7
:09109A00F0900003F07F647E0079
:1010A300900001E05401C43333335480FD900000B9
:1010B300E054FEC3132DF580900003E05401C433C4
:1010C30033335480FD900001E054FEC3132DF5909B
:1010D300A3E05401C43333335480FDA3E054FEC36F
:1010E300132DF5B0900000E05401C4333333548022
:1010F300FD900002E054FEFCC3132DF5A0021797E8
:10161700E4900006F0E4900000F0900002F0A3F0E0
:10162700900001F07F2C7E011210A390000074FF40
:10163700F0900002F0A3F0900001F07F2C7E0112E1
:0F16470010A3900006E004F0E0C3940340C72214
:1009DD00E4900006F0900006E0FFC394085013EF7A
:1009ED009015DD9390000212109E900006E004F029
:1009FD0080E390000274FFF0E4900006F090000692
:100A0D00E0FFC394085010EF9015DD9312109B90EA
:100A1D000006E004F080E690000374FFF0E490001F
:100A2D0006F0900006E0FFC394085013EF9015DD1B
:100A3D009390000112109E900006E004F080E39068
:100A4D00000174FFF0E4900006F0900006E0FFC393
:100A5D0094085013EF9015DD9390000012109E90A6
:0E0A6D000006E004F080E390000074FFF02229
:100A7B00E4900006F0900006E0FFC394085013EFDB
:100A8B009015D59390000012109E900006E004F094
:100A9B0080E390000074FFF0E4900006F0900006F5
:100AAB00E0FFC394085013EF9015D59390000112FB
:100ABB00109E900006E004F080E390000174FFF0BC
:100ACB00E4900006F0900006E0FFC394085010EF8E
:100ADB009015D59312109B900006E004F080E690E1
:100AEB00000374FFF0E4900006F0900006E0FFC3F3
:100AFB0094085013EF9015D59390000212109E900E
:0E0B0B000006E004F080E390000274FFF02288
:10117500E4900006F0900006E0FFC394085022EFCB
:101185009015D593FE900000F0EF9015DD9390003B
:1011950001F0A3F0A3EE12109E900006E004F0808B
:1011A500D4E4900006F0900006E0FFC394085022B6
:1011B500EF9015DD93FE900000F0EF9015D593901C
:1011C5000001F0A3F0A3EE12109E900006E004F0DB
:0D11D50080D490000374FFF0900000F02221
:1012B000E4900006F0900006E0FFC394085017EF9A
:1012C0009015DD93900002F090000112109E9000A6
:1012D00006E004F080DF90000274FFF0900001F05F
:1012E000E4900006F0900006E0FFC394085017EF6A
:1012F0009015DD93900003F090000012109E900076
:1013000006E004F080DF90000374FFF0900000F02E
:0113100022BA
:10131100E4900006F0900006E0FFC394085013EF3C
:101321009015D59390000012109A900006E004F0F9
:1013310080E390000074FFF0900003F0E490000659
:10134100F0900006E0FFC394085015EF9015D59377
:10135100900001F0A312109E900006E004F080E1DD
:0913610090000174FFF0A3F022DA
:10124C00E4900006F0900006E0FF9015E593900006
:10125C0000F0EF9015ED9390000212109E90000696
:10126C00E004F0E0C3940840DC90000074FFF090C0
:10127C000002F0E4900006F0900006E0FF9015E507
:10128C0093900001F0EF9015ED9312109B900006D7
:10129C00E004F0E0C3940840DF90000174FFF0908C
:0412AC000003F02229
:1014AE00E4900006F0900006E0FF9015ED9390009A
:1014BE0001F0EF9015E59312109B900006E004F0FA
:1014CE00E0C3940840DFE4900006F0900006E0FFD1
:1014DE00C394085017EF9015E593900000F090001C
:0D14EE000212109E900006E004F080DF2244
:1011E200E4900007F0E4900006F0900006E0FFC3F0
:1011F2009408500B12108A900006E004F080EB90E5
:10120200000074FFF0900002F0900001F0900003E3
:10121200F0E4900006F0900006E0FFC39408500B43
:1012220012108A900006E004F080EB90000074FF38
:10123200F0900002F0900001F0900003F09000079F
:0A124200E004F0E0C39402409C2297
:10177300E4900006F0900006E0FFC39408500E903A
:1017830015E512108D900006E004F080E87FF47EEA
:04179300010210A39C
:0616FE001211E212177345
:10170400E4900006F0900006E0FFC39409500FEF48
:101714009015F512108E900006E004F080E77F2CFF
:051724007E010210A38C
:10110300E4900007F0E4900006F0900006E0FFC3CF
:101113009408500FEF9015DD12108E900006E00436
:10112300F080E790000074FFF0900002F09000015F
:10113300F0900003F0E4900006F0900006E0FFC397
:101143009408500FEF9015DD12108E900006E00406
:10115300F080E790000074FFF0900002F09000012F
:10116300F0900003F0900007E004F0E0C394024025
:021173009422C4
:10172900E4900006F0900006E0FFC39408500FEF24
:101739009015ED12108E900006E004F080E77FE826
:051749007E030210A365
:10174E00E4900006F0900006E0FFC39409500FEFFE
:10175E009015FE12108E900006E004F080E77F2CAC
:05176E007E010210A342
:1016CC00E4900006F0900006E0FFC394085022EF6F
:1016DC009015ED93FE900000F0EF9015E5939000BF
:1016EC0001F0A3F0A3EE12109E900006E004F0802F
:0216FC00D422F6
:10169400E4900006F0900006E0FFC394095022EFA6
:1016A4009015F593FE900000F0EF9015FE939000D6
:1016B40001F0A3F0A3EE12109E900006E004F08067
:0816C400D47F2C7E010210A36B
:10065700E4900006F090000074AAF0A3F0A3F0A3C2
:1006670012109E900000E0F4F0A3E0F4F0A3E0F491
:10067700F0A3E0F412109E900006E004F0E0C394AB
:100687000540D2E4900006F090000074AAF0A3F0B1
:10069700A3F0A3F07FC87E001210A3900000E0F43F
:1006A700F0A3E0F4F0A3E0F4F0A3E0F4F07FC87E59
:1006B700001210A3900006E004F0E0C3940540C8C0
:1006C700E4900006F090000074AAF0A3F0A3F0A352
:1006D700F07F2C7E011210A3900000E0F4F0A3E05D
:1006E700F4F0A3E0F4F0A3E0F4F07F2C7E01121005
:1006F700A3900006E004F0E0C3940540C890000012
:1007070074FFF0900002F0900001F0900003F07F7A
:060717002C7E010210A37C
:1001C700E4900006F0900006E0FFC394085013EF98
:1001D7009015E59390000012109E900006E004F041
:1001E70080E3E4900006F0900006E0FFC394085017
:1001F70013EF9015E59390000112109E900006E012
:1002070004F080E3E4900006F0900006E0FFC3945A
:10021700085010EF9015E59312109B900006E0042C
:10022700F080E6E4900006F0900006E0FFC3940833
:100237005013EF9015E59390000212109E90000660
:10024700E004F080E390000074FFF0A3F090000357
:10025700F0900002F0E4900006F0900006E0FFC383
:1002670094085018EF9015E593900000F07F327EC8
:10027700001210A3900006E004F080DEE490000670
:10028700F0900006E0FFC394085018EF9015E5932F
:10029700900001F07F327E001210A3900006E00468
:1002A700F080DEE4900006F0900006E0FFC39408BB
:1002B7005018EF9015E593900003F07F327E0012FF
:1002C70010A3900006E004F080DEE4900006F090B2
:1002D7000006E0FFC394085018EF9015E5939000CF
:1002E70002F07F327E001210A3900006E004F08037
:1002F700DE90000074FFF0A3F0900003F09000027E
:02030700F022E2
:100B1900E4900006F0900006E0FFC394085013EF3C
:100B29009015E59390000012109E900006E004F0E5
:100B390080E390000074FFF0E4900006F090000656
:100B4900E0FFC394085013EF9015E593900001124C
:100B5900109E900006E004F080E390000174FFF01D
:100B6900E4900006F0900006E0FFC394085010EFEF
:100B79009015E59312109B900006E004F080E69032
:100B8900000374FFF0E4900006F0900006E0FFC354
:100B990094085013EF9015E59390000212109E905F
:0E0BA9000006E004F080E390000274FFF022EA
:10030900E4900006F0900006E0FFC394085013EF54
:100319009015ED9390000212109E900006E004F0F3
:1003290080E3E4900006F0900006E0FFC3940850D3
:1003390010EF9015ED9312109B900006E004F080E9
:10034900E6E4900006F0900006E0FFC3940850131D
:10035900EF9015ED9390000112109E900006E004B5
:10036900F080E3E4900006F0900006E0FFC39408F3
:100379005013EF9015ED9390000012109E90000617
:10038900E004F080E390000074FFF0A3F090000314
:10039900F0900002F0E4900006F0900006E0FFC340
:1003A90094085018EF9015ED93900002F07F327E7B
:1003B900001210A3900006E004F080DEE49000062D
:1003C900F0900006E0FFC394085018EF9015ED93E4
:1003D900900003F07F327E001210A3900006E00423
:1003E900F080DEE4900006F0900006E0FFC3940878
:1003F9005018EF9015ED93900001F07F327E0012B6
:1004090010A3900006E004F080DEE4900006F0906E
:100419000006E0FFC394085018EF9015ED93900083
:1004290000F07F327E001210A3900006E004F080F5
:10043900DE90000074FFF0A3F0900003F09000023A
:02044900F0229F
:100BB700E4900006F0900006E0FFC394085013EF9E
:100BC7009015ED9390000212109E900006E004F03D
:100BD70080E390000274FFF0E4900006F0900006B6
:100BE700E0FFC394085010EF9015ED9312109B90FF
:100BF7000006E004F080E690000374FFF0E4900044
:100C070006F0900006E0FFC394085013EF9015ED2F
:100C17009390000112109E900006E004F080E3908C
:100C2700000174FFF0E4900006F0900006E0FFC3B7
:100C370094085013EF9015ED9390000012109E90BA
:0E0C47000006E004F080E390000074FFF0224D
:10088B00E4900006F0900006E0FF9015D5939000E1
:10089B0000F0EF9015DD9390000212109E90000671
:1008AB00E004F0E0C3940840DC90000074FFF0908B
:1008BB000002F0E4900006F0900006E0FF9015D5E2
:1008CB0093900001F0EF9015DD9312109B900006B2
:1008DB00E004F0E0C3940840DFE4900006F09000E1
:1008EB0006E0FF9015DD93900001F0EF9015D59386
:1008FB0012109B900006E004F0E0C3940840DF90D8
:10090B00000174FFF0900003F0E4900006F09000FB
:10091B0006E0FF9015DD93900000F0EF9015D59356
:10092B0090000212109E900006E004F0E0C39408C1
:03093B0040DC227B
:10000300E4900007F0E4900006F0900006E0FF9013
:1000130015D593900000F0EF9015DD93900002F05A
:10002300900004E0FEA3E0FF1210A3900006E0049A
:10003300F0E0C3940840D390000074FFF0900002F6
:10004300F0E4900006F0900006E0FF9015D5939041
:100053000001F0EF9015DD93900003F0A3E0FEA301
:10006300E0FF1210A3900006E004F0E0C394084000
:10007300D590000174FFF0900003F0900005E02498
:10008300F6F0900004E034FFF0900007E004F0E0A5
:10009300C394055003020008E4900007F0E49000C5
:1000A30006F0900006E0FF9015D593900000F0EF66
:1000B3009015DD93900002F07F147E001210A39040
:1000C3000006E004F0E0C3940840D790000074FFFA
:1000D300F0900002F0E4900006F0900006E0FF903C
:1000E30015D593900001F0EF9015DD93900003F088
:1000F3007F147E001210A3900006E004F0E0C39486
:100103000840D790000174FFF0900003F0900007BF
:10011300E004F0E0C394104084900004E4F0A3747E
:1001230014F0E4900007F0E4900006F0900006E07D
:10013300FF9015D593900000F0EF9015DD9390009C
:1001430002F0900004E0FEA3E0FF1210A39000066B
:10015300E004F0E0C3940840D390000074FFF090F3
:100163000002F0E4900006F0900006E0FF9015D541
:1001730093900001F0EF9015DD93900003F0A3E05E
:10018300FEA3E0FF1210A3900006E004F0E0C39486
:100193000840D590000174FFF0900003F090000533
:1001A300E0240AF0900004E03400F0900007E0043B
:1001B300F0E0C39405500302012A900004E4F0A385
:0401C3007446F0226C
:10158F00E4900006F0E4900000F0900002F07FE895
:10159F007E031210A390000074FFF0900002F0E49D
:1015AF00900001F0900003F07FE87E031210A390EB
:1015BF00000174FFF0900003F0900006E004F0E0EB
:0615CF00C3940240C0229B
:1014600090000174FFF0900003F0900000F09000F5
:1014700002F0E4900006F0E4900000F0A3F07FE8B2
:101480007E031210A390000074FFF0A3F0E4A3F019
:10149000A3F07FE87E031210A390000274FFF0A374
:0E14A000F0900006E004F0E0C3940240CA227F
:10165600E4900006F090000074AAF0A3F0A3F0A3B3
:10166600F07FE87E031210A3900000E0F4F0A3E000
:10167600F4F0A3E0F4F0A3E0F4F07FE87E031210A8
:0E168600A3900006E004F0E0C3940540C822E3
:10057C00E4900000F0A3F0A3F0A3F0900006F0903C
:10058C000006E0FF9015D593F4900000F0EF901565
:10059C00DD93F4900002F07FC87E001210A390004F
:1005AC0006E004F0E0C3940840D5E4900000F0901D
:1005BC000002F0900006F0900006E0FF9015D59335
:1005CC00F4900001F0EF9015DD93F4900003F07FB0
:1005DC00C87E001210A3900006E004F0E0C394085B
:1005EC0040D5E4900006F0900006E0FF9015DD93F6
:1005FC00F4900001F0EF9015D593F4900003F07F88
:10060C00C87E001210A3900006E004F0E0C394082A
:10061C0040D5E4900001F0900003F0900006F090BB
:10062C000006E0FF9015DD93F4900000F0EF9015BC
:10063C00D593F4900002F07FC87E001210A39000B6
:0B064C0006E004F0E0C3940840D52253
:100F1C0090000074FFF0A3F0A3F0A3F0E49000079E
:100F2C00F0E4900006F0900006E0FFC39408501720
:100F3C00EF9015ED93900002F090000112109E902E
:100F4C000006E004F080DF90000274FFF0900001D6
:100F5C00F0E4900006F0900006E0FFC394085013F4
:100F6C00EF9015ED9390000012109A900006E0049B
:100F7C00F080E390000074FFF0900003F090000705
:0A0F8C00E004F0E0C3940240982254
:1013BE00E4900006F0E4900001F0A3F090000074B9
:1013CE00FFF0900003F07FE87E031210A39000015F
:1013DE0074FFF0A3F0E4900000F0900003F07FE8BB
:1013EE007E031210A3900006E004F0E0C3940240C6
:1013FE00C490000174FFF0A3F0900000F090000381
:02140E00F022CA
:10071D0090000074FFF0A3F0A3F0A3F0E4900007A5
:10072D00F0E4900006F0900006E0FFC39408501727
:10073D00EF9015ED93900002F090000112109E9035
:10074D000006E004F080DFE4900006F0900006E083
:10075D00FFC394095017EF9015FE93900002F0908F
:10076D00000112109E900006E004F080DFE490007E
:10077D0006F0900006E0FFC394085013EF9015EDBE
:10078D009390000012109A900006E004F080E3E4CC
:10079D00900006F0900006E0FFC394095013EF900F
:1007AD0015FE9390000012109A900006E004F08060
:1007BD00E3900007E004F0E0C39402500302072E1B
:0707CD007FC87E000210A3AB
:100F960090000074FFF0A3F0A3F0A3F0E490000724
:100FA600F0E4900006F0900006E0FFC394085017A6
:100FB600EF9015E593900002F090000112109E90BC
:100FC6000006E004F080DF90000274FFF09000015C
:100FD600F0E4900006F0900006E0FFC3940850137A
:100FE600EF9015E59390000012109A900006E00429
:100FF600F080E390000074FFF0900003F09000078B
:0A100600E004F0E0C39402409822D9
:1007D40090000074FFF0A3F0A3F0A3F0E4900007EE
:1007E400F0E4900006F0900006E0FFC39408501770
:1007F400EF9015E593900002F090000112109E9086
:100804000006E004F080DFE4900006F0900006E0CB
:10081400FFC394095017EF9015F593900002F090E0
:10082400000112109E900006E004F080DFE49000C6
:1008340006F0900006E0FFC394085013EF9015E50E
:100844009390000012109A900006E004F080E3E414
:10085400900006F0900006E0FFC394095013EF9057
:1008640015F59390000012109A900006E004F080B1
:10087400E3900007E004F0E0C3940250030207E5AC
:070884007FC87E000210A3F3
:10093E00E4900006F0900006E0FF9015E59390001D
:10094E0000F0EF9015ED9390000212109E900006AD
:10095E00E004F0E0C3940840DCE4900006F0900060
:10096E0006E0FF9015E593900001F0EF9015ED93E2
:10097E0012109B900006E004F0E0C3940840DFE400
:10098E00900006F0900006E0FF9015FE9390000197
:10099E00F0EF9015F59312109B900006E004F0E036
:1009AE00C3940940DFE4900006F0900006E0FF904B
:1009BE0015FE93900000F0EF9015F5939000021243
:0F09CE00109E900006E004F0E0C3940940DC2284
:100C5500E4900006F0900006E0FF9015ED939000FB
:100C650000F0EF9015E59390000112109E9000069C
:100C7500E004F0E0C3940840DCE4900006F0900046
:100C850006E0FF9015ED93900002F0EF9015E593C7
:100C950012109B900006E004F0E0C3940840DF7F4B
:100CA500F47E011210A3E4900006F0900006E0FF28
:100CB500C394095028EF9015F593FE900002F0EFCC
:100CC5009015FE93FF900003F0900001EEF0900068
:100CD50000EF12109E900006E004F080CE7F2C7E7F
:040CE500010210A355
:100CE900E4900006F0900006E0FF9015E59390006F
:100CF90002F0EF9015ED9312109B900006E004F0BE
:100D0900E0C3940840DFE4900006F0900006E0FF9D
:100D19009015E593900000F0EF9015ED9390000188
:100D290012109E900006E004F0E0C3940840DC7FB6
:100D3900F47E011210A3E4900006F0900006E0FF93
:100D4900C394095028EF9015FE93FE900002F0EF2E
:100D59009015F593FF900003F0900001EEF09000DC
:100D690000EF12109E900006E004F080CE7F2C7EEA
:040D7900010210A3C0
:1014FB00E4900006F0900006E0FFC394085017EF4D
:10150B009015ED93900002F090000112109E900048
:10151B0006E004F080DFE4900006F0900006E0FFA8
:10152B00C394085017EF9015ED93900003F09000C3
:0D153B000012109E900006E004F080DF22F8
:10154800E4900006F0900006E0FFC394085013EF03
:101558009015E59390000012109A900006E004F0B0
:1015680080E3E4900006F0900006E0FFC394085082
:1015780015EF9015E593900001F0A312109E9000CE
:0715880006E004F080E122FF
:10044B00E4900006F0900006E0FF9015D593900025
:10045B0000F0EF9015DD9390000212109E900006B5
:10046B00E004F0E0C3940840DC90000074FFF090CF
:10047B000002F0E4900006F0900006E0FF9015D526
:10048B0093900001F0EF9015DD9312109B900006F6
:10049B00E004F0E0C3940840DFE4900006F0900025
:1004AB0006E0FF90160F93900001F0EF9016079364
:1004BB0012109B900006E004F0E0C3940840DF901C
:1004CB000001747FF090000374FEF0E4900006F0DE
:1004DB00900006E0FF9015DD93900000F0EF901573
:1004EB00D59390000212109E900006E004F0E0C33A
:1004FB00940840DCE4900006F0900006E0FFC39403
:10050B0008502BEF9015D593FE900000F0EF90154F
:10051B00DD93900002F0900001F0900003EEF07F6D
:10052B00C87E001210A3900006E004F080CBE4908C
:10053B000006F0900006E0FFC394085027EF9015DB
:10054B00DD93FE900000F0EF9015D593900001F035
:10055B00A3F0A3EEF07FC87E001210A3900006E07C
:10056B0004F080CF90000074FFF0A3F0A3F0A3F091
:01057B00225D
:1010100090000074FFF0A3F0A3F0A3F0E4900007A9
:10102000F0E4900006F0900006E0FFC3940850172B
:10103000EF9015ED93900002F090000112109E9039
:101040000006E004F080DF90000274FFF0900001E1
:10105000F0E4900006F0900006E0FFC394085013FF
:10106000EF9015ED9390000012109A900006E004A6
:10107000F080E390000074FFF0900003F090000710
:0A108000E004F0E0C394024098225F
:100E0900E4900001F0900003F0900006F0900006D5
:100E1900E0FFC39408501CEF9015ED93900000F08B
:100E2900900002F07F967E001210A3900006E00465
:100E3900F080DAE4900006F0900006E0FF9015E5F6
:100E490093900000F0EF9015ED93900002F07F2C45
:100E59007E011210A3900006E004F0E0C39408405C
:100E6900D7E4900006F0900000E0F4F0900002E072
:100E7900F4F07F2C7E011210A3900006E004F0E04C
:0C0E8900C3940440E17FE87E030210A344
:10136A00E4900006F0900006E0FFC394095017EFDE
:10137A009015F593900003F090000012109E9000D3
:10138A0006E004F080DF9000067401F0900006E0A9
:10139A00FFC394095017EF9015F593900002F0904F
:1013AA00000112109E900006E004F080DF7F2C7E80
:0413BA00010210A379
:10141000E4900006F0900006E0FFC394095017EF37
:101420009015FE93900002F090000112109E900023
:1014300006E004F080DF9000067401F0900006E002
:10144000FFC394095013EF9015FE93900000121003
:101450009A900006E004F080E37F2C7E010210A346
:100E95001200031216171209DD120A7B12117512C0
:100EA50012B012131112124C1214AE12161712169A
:100EB500FE12110312172912174E1216CC12169490
:100EC5001206571201C7120B19120309120BB7129A
:100ED500088B12000312158F120E091214601216D8
:100EE500561216FE12057C120F1C1213BE1210109C
:100EF50012071D120F961207D412093E120C551235
:100F0500044B12154812136A1214FB121410120C1A
:070F1500E91213BE020E9564
:100D8900020E95E493A3F8E493A34003F68001F2DD
:100D990008DFF48029E493A3F85407240CC8C3336B
:100DA900C4540F4420C8834004F456800146F6DF3A
:100DB900E4800B01020408102040809017B5E47EFE
:100DC900019360BCA3FF543F30E509541FFEE4932F
:100DD900A360010ECF54C025E060A840B8E493A3F6
:100DE900FAE493A3F8E493A3C8C582C8CAC583CA21
:100DF900F0A3C8C582C8CAC583CADFE9DEE780BED9
:0117CA00001E
:00000001FF
