:03000000020E8A63
:0C0E8A00787FE4F6D8FD758107020ED1D8
:10165B00FEFDFBF7EFDFBF7F7FBFDFEFF7FBFDFE8D
:10166B00FEFCF8F0E0C080007F3F1F0F0703010076
:10167B00000103070F1F3F7FFF0080C0E0F0F8FC65
:10168B00FEFFFEFCFAF6EEDEBE7E7F3F5F6F777BE2
:02169B007D7E52
:10178400410014FF410015FF410016FF410017FFFF
:10179400540000000102030405060708090A0B0CA3
:0C17A4000D0E0F10111213420018004629
:10186300D3EF9400EE940040147D7D7C00ED1D7059
:0D187300011CED4C70F7EF1F70E61E80E3C6
:011880002245
:1011100090165BEF93900014F0900016F09000157D
:09112000F0900017F07F647E00DE
:10112900900015E05401C43333335480FD9000140A
:10113900E054FEC3132DF580900017E05401C43329
:1011490033335480FD900015E054FEC3132DF59000
:10115900A3E05401C43333335480FDA3E054FEC3E8
:10116900132DF5B0900014E05401C4333333548087
:10117900FD900016E054FEFCC3132DF5A002186380
:10169D00E490001AF0E4900014F0900016F0A3F01E
:1016AD00900015F07F2C7E0112112990001474FF0B
:1016BD00F0900016F0A3F0900015F07F2C7E011233
:0F16CD00112990001AE004F0E0C3940340C722F3
:100AEA00E490001AF090001AE0FFC394085013EF44
:100AFA009016639390001612112490001AE004F0E5
:100B0A0080E390001674FFF0E490001AF090001A47
:100B1A00E0FFC394085010EF9016639312112190CE
:100B2A00001AE004F080E690001774FFF0E49000E9
:100B3A001AF090001AE0FFC394085013EF9016635E
:100B4A009390001512112490001AE004F080E390AB
:100B5A00001574FFF0E490001AF090001AE0FFC349
:100B6A0094085013EF901663939000141211249076
:0E0B7A00001AE004F080E390001474FFF022F3
:100B8800E490001AF090001AE0FFC394085013EFA5
:100B980090165B9390001412112490001AE004F050
:100BA80080E390001474FFF0E490001AF090001AAB
:100BB800E0FFC394085013EF90165B939000151252
:100BC800112490001AE004F080E390001574FFF0FF
:100BD800E490001AF090001AE0FFC394085010EF58
:100BE80090165B9312112190001AE004F080E690B1
:100BF800001774FFF0E490001AF090001AE0FFC3A9
:100C080094085013EF90165B9390001612112490DD
:0E0C1800001AE004F080E390001674FFF02252
:1011FB00E490001AF090001AE0FFC394085022EF1D
:10120B0090165B93FE900014F0EF90166393900092
:10121B0015F0A3F0A3EE12112490001AE004F08055
:10122B00D4E490001AF090001AE0FFC39408502207
:10123B00EF90166393FE900014F0EF90165B939073
:10124B000015F0A3F0A3EE12112490001AE004F0A5
:0D125B0080D490001774FFF0900014F02272
:10133600E490001AF090001AE0FFC394085017EFEB
:1013460090166393900016F09000151211249000E9
:101356001AE004F080DF90001674FFF0900015F09C
:10136600E490001AF090001AE0FFC394085017EFBB
:1013760090166393900017F09000141211249000B9
:101386001AE004F080DF90001774FFF0900014F06C
:011396002234
:10139700E490001AF090001AE0FFC394085013EF8E
:1013A70090165B9390001412112090001AE004F03D
:1013B70080E390001474FFF0900017F0E490001A97
:1013C700F090001AE0FFC394085015EF90165B9356
:1013D700900015F0A312112490001AE004F080E1A8
:0913E70090001574FFF0A3F02240
:1012D200E490001AF090001AE0FF90166B939000D1
:1012E20014F0EF9016739390001612112490001AC6
:1012F200E004F0E0C3940840DC90001474FFF09026
:101302000016F0E490001AF090001AE0FF90166BBD
:1013120093900015F0EF9016739312112190001A1A
:10132200E004F0E0C3940840DF90001574FFF090F1
:041332000017F0228E
:10153400E490001AF090001AE0FF90167393900064
:1015440015F0EF90166B9312112190001AE004F03D
:10155400E0C3940840DFE490001AF090001AE0FF22
:10156400C394085017EF90166B93900014F09000FA
:0D1574001612112490001AE004F080DF220E
:10126800E490001BF0E490001AF090001AE0FFC32D
:101278009408500B12111090001AE004F080EB90C3
:10128800001474FFF0900016F0900015F09000170D
:10129800F0E490001AF090001AE0FFC39408500B95
:1012A80012111090001AE004F080EB90001474FF03
:1012B800F0900016F0900015F0900017F090001BC9
:0A12C800E004F0E0C39402409C2211
:10182000E490001AF090001AE0FFC39408500E9064
:10183000166B12111390001AE004F080E87FF47E1A
:041840000102112967
:1017B100E490001AF090001AE0FFC39409500FEF73
:1017C10090167B12111490001AE004F080E77F2C30
:0517D1007E0102112958
:10118900E490001BF0E490001AF090001AE0FFC30D
:101199009408500FEF90166312111490001AE0048E
:1011A900F080E790001474FFF0900016F09000159D
:1011B900F0900017F0E490001AF090001AE0FFC3D5
:1011C9009408500FEF90166312111490001AE0045E
:1011D900F080E790001474FFF0900016F09000156D
:1011E900F0900017F090001BE004F0E0C394024077
:0211F90094223E
:1017D600E490001AF090001AE0FFC39408500FEF4F
:1017E60090167312111490001AE004F080E77FE857
:0517F6007E0302112931
:1017FB00E490001AF090001AE0FFC39409500FEF29
:10180B0090168412111490001AE004F080E77F2CDC
:05181B007E010211290D
:10175200E490001AF090001AE0FFC394085022EFC0
:1017620090167393FE900014F0EF90166B93900016
:1017720015F0A3F0A3EE12112490001AE004F080F9
:02178200D4226F
:10171A00E490001AF090001AE0FFC394095022EFF7
:10172A0090167B93FE900014F0EF9016849390002D
:10173A0015F0A3F0A3EE12112490001AE004F08031
:08174A00D47F2C7E010211295D
:10076400E490001AF090001474AAF0A3F0A3F0A38C
:10077400121124900014E0F4F0A3E0F4F0A3E0F4E8
:10078400F0A3E0F412112490001AE004F0E0C39402
:100794000540D2E490001AF090001474AAF0A3F07B
:1007A400A3F0A3F07FC87E00121129900014E0F496
:1007B400F0A3E0F4F0A3E0F4F0A3E0F4F07FC87E4B
:1007C4000012112990001AE004F0E0C3940540C817
:1007D400E490001AF090001474AAF0A3F0A3F0A31C
:1007E400F07F2C7E01121129900014E0F4F0A3E0B4
:1007F400F4F0A3E0F4F0A3E0F4F07F2C7E011211F6
:100804002990001AE004F0E0C3940540C890001455
:1008140074FFF0900016F0900015F0900017F07F30
:060824002C7E01021129E7
:1001C700E490001AF090001AE0FFC394085013EF70
:1001D70090166B9390001412112490001AE004F00B
:1001E70080E3E490001AF090001AE0FFC3940850EF
:1001F70013EF90166B9390001512112490001AE0DC
:1002070004F080E3E490001AF090001AE0FFC39432
:10021700085010EF90166B9312112190001AE0040A
:10022700F080E6E490001AF090001AE0FFC394080B
:100237005013EF90166B9390001612112490001A2A
:10024700E004F080E390001474FFF0A3F09000172F
:10025700F0900016F0E490001AF090001AE0FFC347
:1002670094085018EF90166B93900014F07F327E2D
:100277000012112990001AE004F080DEE490001AC1
:10028700F090001AE0FFC394085018EF90166B9394
:10029700900015F07F327E0012112990001AE004B9
:1002A700F080DEE490001AF090001AE0FFC3940893
:1002B7005018EF90166B93900017F07F327E001264
:1002C700112990001AE004F080DEE490001AF09003
:1002D700001AE0FFC394085018EF90166B93900034
:1002E70016F07F327E0012112990001AE004F08088
:1002F700DE90001474FFF0A3F0900017F090001642
:02030700F022E2
:100C2600E490001AF090001AE0FFC394085013EF06
:100C360090166B9390001412112490001AE004F0A1
:100C460080E390001474FFF0E490001AF090001A0C
:100C5600E0FFC394085013EF90166B9390001512A3
:100C6600112490001AE004F080E390001574FFF060
:100C7600E490001AF090001AE0FFC394085010EFB9
:100C860090166B9312112190001AE004F080E69002
:100C9600001774FFF0E490001AF090001AE0FFC30A
:100CA60094085013EF90166B93900016121124902F
:0E0CB600001AE004F080E390001674FFF022B4
:10030900E490001AF090001AE0FFC394085013EF2C
:100319009016739390001612112490001AE004F0BD
:1003290080E3E490001AF090001AE0FFC3940850AB
:1003390010EF9016739312112190001AE004F080C7
:10034900E6E490001AF090001AE0FFC394085013F5
:10035900EF9016739390001512112490001AE0047F
:10036900F080E3E490001AF090001AE0FFC39408CB
:100379005013EF9016739390001412112490001AE1
:10038900E004F080E390001474FFF0A3F0900017EC
:10039900F0900016F0E490001AF090001AE0FFC304
:1003A90094085018EF90167393900016F07F327EE0
:1003B9000012112990001AE004F080DEE490001A7E
:1003C900F090001AE0FFC394085018EF9016739349
:1003D900900017F07F327E0012112990001AE00474
:1003E900F080DEE490001AF090001AE0FFC3940850
:1003F9005018EF90167393900015F07F327E00121B
:10040900112990001AE004F080DEE490001AF090BF
:10041900001AE0FFC394085018EF901673939000E8
:1004290014F07F327E0012112990001AE004F08046
:10043900DE90001474FFF0A3F0900017F0900016FE
:02044900F0229F
:100CC400E490001AF090001AE0FFC394085013EF68
:100CD4009016739390001612112490001AE004F0F9
:100CE40080E390001674FFF0E490001AF090001A6C
:100CF400E0FFC394085010EF9016739312112190E3
:100D0400001AE004F080E690001774FFF0E490000D
:100D14001AF090001AE0FFC394085013EF90167372
:100D24009390001512112490001AE004F080E390CF
:100D3400001574FFF0E490001AF090001AE0FFC36D
:100D440094085013EF90167393900014121124908A
:0E0D5400001AE004F080E390001474FFF02217
:10099800E490001AF090001AE0FF90165B93900024
:1009A80014F0EF9016639390001612112490001A19
:1009B800E004F0E0C3940840DC90001474FFF09069
:1009C8000016F0E490001AF090001AE0FF90165B11
:1009D80093900015F0EF9016639312112190001A6E
:1009E800E004F0E0C3940840DFE490001AF09000BF
:1009F8001AE0FF90166393900015F0EF90165B9342
:100A080012112190001AE004F0E0C3940840DF902E
:100A1800001574FFF0900017F0E490001AF09000B1
:100A28001AE0FF90166393900014F0EF90165B9312
:100A380090001612112490001AE004F0E0C3940804
:030A480040DC226D
:10000300E490001BF0E490001AF090001AE0FF90D7
:10001300165B93900014F0EF90166393900016F024
:10002300900018E0FEA3E0FF12112990001AE004EB
:10003300F0E0C3940840D390001474FFF0900016CE
:10004300F0E490001AF090001AE0FF90165B939092
:100053000015F0EF90166393900017F0A3E0FEA352
:10006300E0FF12112990001AE004F0E0C394084065
:10007300D590001574FFF0900017F0900019E0245C
:10008300F6F0900018E034FFF090001BE004F0E07D
:10009300C394055003020008E490001BF0E49000B1
:1000A3001AF090001AE0FF90165B93900014F0EFA3
:1000B30090166393900016F07F147E00121129901E
:1000C300001AE004F0E0C3940840D790001474FFD2
:1000D300F0900016F0E490001AF090001AE0FF9000
:1000E300165B93900015F0EF90166393900017F052
:1000F3007F147E0012112990001AE004F0E0C394EB
:100103000840D790001574FFF0900017F090001B83
:10011300E004F0E0C394104084900018E4F0A3746A
:1001230014F0E490001BF0E490001AF090001AE041
:10013300FF90165B93900014F0EF9016639390007A
:1001430016F0900018E0FEA3E0FF12112990001AA8
:10015300E004F0E0C3940840D390001474FFF090DF
:100163000016F0E490001AF090001AE0FF90165B7E
:1001730093900015F0EF90166393900017F0A3E0AF
:10018300FEA3E0FF12112990001AE004F0E0C394EB
:100193000840D590001574FFF0900017F0900019F7
:1001A300E0240AF0900018E03400F090001BE00413
:1001B300F0E0C39405500302012A900018E4F0A371
:0401C3007446F0226C
:10161500E490001AF0E4900014F0900016F07FE8D2
:101625007E0312112990001474FFF0900016F0E467
:10163500900015F0900017F07FE87E0312112990B5
:10164500001574FFF0900017F090001AE004F0E028
:06165500C3940240C02214
:1014E60090001574FFF0900017F0900014F0900033
:1014F60016F0E490001AF0E4900014F0A3F07FE8F0
:101506007E0312112990001474FFF0A3F0E4A3F0F7
:10151600A3F07FE87E0312112990001674FFF0A352
:0E152600F090001AE004F0E0C3940240CA22E4
:1016DC00E490001AF090001474AAF0A3F0A3F0A305
:1016EC00F07FE87E03121129900014E0F4F0A3E0DF
:1016FC00F4F0A3E0F4F0A3E0F4F07FE87E03121121
:0E170C002990001AE004F0E0C3940540C822C2
:10068900E4900014F0A3F0A3F0A3F090001AF09006
:10069900001AE0FF90165B93F4900014F0EF9016A7
:1006A9006393F4900016F07FC87E00121129900020
:1006B9001AE004F0E0C3940840D5E4900014F090E7
:1006C9000016F090001AF090001AE0FF90165B9364
:1006D900F4900015F0EF90166393F4900017F07FF3
:1006E900C87E0012112990001AE004F0E0C39408B2
:1006F90040D5E490001AF090001AE0FF9016639339
:10070900F4900015F0EF90165B93F4900017F07FCA
:10071900C87E0012112990001AE004F0E0C3940881
:1007290040D5E4900015F0900017F090001AF09071
:10073900001AE0FF90166393F4900014F0EF9016FE
:100749005B93F4900016F07FC87E00121129900087
:0B0759001AE004F0E0C3940840D52231
:100FA20090001474FFF0A3F0A3F0A3F0E490001BF0
:100FB200F0E490001AF090001AE0FFC39408501772
:100FC200EF90167393900016F09000151211249072
:100FD200001AE004F080DF90001674FFF090001514
:100FE200F0E490001AF090001AE0FFC39408501346
:100FF200EF9016739390001412112090001AE004DF
:10100200F080E390001474FFF0900017F090001B42
:0A101200E004F0E0C39402409822CD
:10144400E490001AF0E4900015F0A3F090001474F6
:10145400FFF0900017F07FE87E0312112990001529
:1014640074FFF0A3F0E4900014F0900017F07FE80C
:101474007E0312112990001AE004F0E0C3940240A4
:10148400C490001574FFF0A3F0900014F0900017BE
:02149400F02244
:10082A0090001474FFF0A3F0A3F0A3F0E490001B6F
:10083A00F0E490001AF090001AE0FFC394085017F1
:10084A00EF90167393900016F090001512112490F1
:10085A00001AE004F080DFE490001AF090001AE039
:10086A00FFC394095017EF90168493900016F090E6
:10087A00001512112490001AE004F080DFE49000C1
:10088A001AF090001AE0FFC394085013EF90167301
:10089A009390001412112090001AE004F080E3E40F
:1008AA0090001AF090001AE0FFC394095013EF90D9
:1008BA0016849390001412112090001AE004F0801C
:1008CA00E390001BE004F0E0C39402500302083BEB
:0708DA007FC87E0002112916
:10101C0090001474FFF0A3F0A3F0A3F0E490001B75
:10102C00F0E490001AF090001AE0FFC394085017F7
:10103C00EF90166B93900016F090001512112490FF
:10104C00001AE004F080DF90001674FFF090001599
:10105C00F0E490001AF090001AE0FFC394085013CB
:10106C00EF90166B9390001412112090001AE0046C
:10107C00F080E390001474FFF0900017F090001BC8
:0A108C00E004F0E0C3940240982253
:1008E10090001474FFF0A3F0A3F0A3F0E490001BB8
:1008F100F0E490001AF090001AE0FFC3940850173A
:10090100EF90166B93900016F09000151211249041
:10091100001AE004F080DFE490001AF090001AE081
:10092100FFC394095017EF90167B93900016F09037
:10093100001512112490001AE004F080DFE4900009
:100941001AF090001AE0FFC394085013EF90166B51
:100951009390001412112090001AE004F080E3E457
:1009610090001AF090001AE0FFC394095013EF9021
:10097100167B9390001412112090001AE004F0806D
:10098100E390001BE004F0E0C3940250030208F27C
:070991007FC87E000211295E
:100A4B00E490001AF090001AE0FF90166B93900060
:100A5B0014F0EF9016739390001612112490001A55
:100A6B00E004F0E0C3940840DCE490001AF090003E
:100A7B001AE0FF90166B93900015F0EF901673939E
:100A8B0012112190001AE004F0E0C3940840DFE457
:100A9B0090001AF090001AE0FF90168493900015C6
:100AAB00F0EF90167B9312112190001AE004F0E006
:100ABB00C3940940DFE490001AF090001AE0FF9015
:100ACB00168493900014F0EF90167B9390001612FF
:0F0ADB00112490001AE004F0E0C3940940DC22DB
:100D6200E490001AF090001AE0FF9016739390003E
:100D720014F0EF90166B9390001512112490001A44
:100D8200E004F0E0C3940840DCE490001AF0900024
:100D92001AE0FF90167393900016F0EF90166B9383
:100DA20012112190001AE004F0E0C3940840DF7FA2
:100DB200F47E01121129E490001AF090001AE0FF6B
:100DC200C394095028EF90167B93FE900016F0EF23
:100DD20090168493FF900017F0900015EEF09000AB
:100DE20014EF12112490001AE004F080CE7F2C7EC2
:040DF20001021129C0
:100DF600E490001AF090001AE0FF90166B939000B2
:100E060016F0EF9016739312112190001AE004F079
:100E1600E0C3940840DFE490001AF090001AE0FF67
:100E260090166B93900014F0EF9016739390001544
:100E360012112490001AE004F0E0C3940840DC7F0D
:100E4600F47E01121129E490001AF090001AE0FFD6
:100E5600C394095028EF90168493FE900016F0EF85
:100E660090167B93FF900017F0900015EEF090001F
:100E760014EF12112490001AE004F080CE7F2C7E2D
:040E8600010211292B
:10158100E490001AF090001AE0FFC394085017EF9E
:1015910090167393900016F090001512112490008C
:1015A1001AE004F080DFE490001AF090001AE0FFE6
:1015B100C394085017EF90167393900017F09000A2
:0D15C1001412112490001AE004F080DF22C3
:1015CE00E490001AF090001AE0FFC394085013EF55
:1015DE0090166B9390001412112090001AE004F0F4
:1015EE0080E3E490001AF090001AE0FFC3940850D4
:1015FE0015EF90166B93900015F0A3121124900026
:07160E001AE004F080E12264
:10044B00E490001AF090001AE0FF90165B93900076
:10045B0014F0EF9016639390001612112490001A6B
:10046B00E004F0E0C3940840DC90001474FFF090BB
:10047B000016F0E490001AF090001AE0FF90165B63
:10048B0093900015F0EF9016639312112190001AC0
:10049B00E004F0E0C3940840DFE490001AF0900011
:1004AB001AE0FF90169593900015F0EF90168D9330
:1004BB0012112190001AE004F0E0C3940840DF9081
:1004CB000015747FF090001774FEF0E490001AF0A2
:1004DB0090001AE0FF90166393900014F0EF9016C3
:1004EB005B9390001612112490001AE004F0E0C305
:1004FB00940840DCE490001AF090001AE0FFC394DB
:10050B0008502BEF90165B93FE900014F0EF9016B3
:10051B006393900016F0900015F0900017EEF07FAB
:10052B00C87E0012112990001AE004F080CBE490F1
:10053B00001AF090001AE0FFC394085027EF9016B2
:10054B006393FE900014F0EF90165B93900015F000
:10055B00A3F0A3EEF07FC87E0012112990001AE0E1
:10056B0004F080CF90001474FFF0A3F0A3F0A3F07D
:01057B00225D
:1010960090001474FFF0A3F0A3F0A3F0E490001BFB
:1010A600F0E490001AF090001AE0FFC3940850177D
:1010B600EF90167393900016F0900015121124907D
:1010C600001AE004F080DF90001674FFF09000151F
:1010D600F0E490001AF090001AE0FFC39408501351
:1010E600EF9016739390001412112090001AE004EA
:1010F600F080E390001474FFF0900017F090001B4E
:0A110600E004F0E0C39402409822D8
:100F1600E4900015F0900017F090001AF090001A77
:100F2600E0FFC39408501CEF90167393900014F0E2
:100F3600900016F07F967E0012112990001AE004A8
:100F4600F080DAE490001AF090001AE0FF90166B39
:100F560093900014F0EF90167393900016F07F2C88
:100F66007E0112112990001AE004F0E0C3940840B3
:100F7600D7E490001AF0900014E0F4F0900016E028
:100F8600F4F07F2C7E0112112990001AE004F0E0A3
:0C0F9600C3940440E17FE87E03021129AF
:1013F000E490001AF090001AE0FFC394095017EF30
:1014000090167B93900017F0900014121124900016
:101410001AE004F080DF90001A7401F090001AE0E6
:10142000FFC394095017EF90167B93900016F0902D
:10143000001512112490001AE004F080DF7F2C7E4A
:04144000010211296B
:10149600E490001AF090001AE0FFC394095017EF89
:1014A60090168493900016F0900015121124900067
:1014B6001AE004F080DF90001A7401F090001AE040
:1014C600FFC394095013EF901684939000141211E1
:1014D6002090001AE004F080E37F2C7E010211299F
:10057C00EFB42A00400302068890058CF8282873F3
:10058C0002060A02060D02061002061302061602E5
:10059C00061902061C02061F020622020625020686
:1005AC002802062B02062E020631020634020637FA
:1005BC0002063A02063D02064002064302064602C5
:1005CC00064902064C02064F020652020655020666
:1005DC005802065B02065E020661020664020667AA
:1005EC0002066A02066D02067002067302067602A5
:1005FC00067902067C02067F020682020685021636
:10060C009D020AEA020B880211FB021336021397B1
:10061C000212D20215340212680218200217B1021B
:10062C0011890217D60217FB02175202171A02077A
:10063C00640201C7020C26020309020CC4020998C9
:10064C000200030216150214E60216DC02068902E9
:10065C000FA202144402082A02101C0208E1020A2A
:10066C004B020D62020DF60215810215CE02044BEF
:0D067C00021096020F160213F012149622BF
:10184400E4FBFA74002BF58274003AF583E0FF128E
:0F185400057C0BBB00010AEB64144A70E680E1CF
:100E9600021844E493A3F8E493A34003F68001F216
:100EA60008DFF48029E493A3F85407240CC8C3335D
:100EB600C4540F4420C8834004F456800146F6DF2C
:100EC600E4800B0102040810204080901784E47E21
:100ED600019360BCA3FF543F30E509541FFEE49321
:100EE600A360010ECF54C025E060A840B8E493A3E8
:100EF600FAE493A3F8E493A3C8C582C8CAC583CA13
:100F0600F0A3C8C582C8CAC583CADFE9DEE780BECA
:0117B0000038
:00000001FF
